:020000021000EC
:10B000000040002099E40100D9E40100DBE40100E4
:10B010000000000000000000000000000000000030
:10B02000000000000000000000000000DDE401005E
:10B030000000000000000000DFE40100E1E4010086
:10B0400011BD0100E3E401008DBD0100E3E4010056
:10B05000E3E4010000000000E3E40100E3E4010098
:10B06000E3E40100E3E40100E3E40100E3E40100C0
:10B07000E3E40100E3E40100E3E40100E3E40100B0
:10B08000E3E40100EDC70100E3E40100E3E40100B3
:10B0900091C10100E3E4010069D10100E3E4010092
:10B0A000E3E40100E3E40100000000000000000010
:10B0B0000000000000000000000000000000000090
:10B0C00010B5064C2378002B07D1054B002B02D07E
:10B0D000044800E000BF0123237010BDA820002019
:10B0E00000000000D047020008B5084B002B03D039
:10B0F0000748084900E000BF07480368002B00D15B
:10B1000008BD064B002BFBD09847F9E70000000074
:10B11000D0470200AC200020A42000200000000046
:10B12000164B002B00D1144B9D46402292029A1AD6
:10B13000924600218B460F461348144A121A03F018
:10B140000DFA0F4B002B00D098470E4B002B00D070
:10B1500098470020002104000D000D48002802D06F
:10B160000C4800E000BF03F0D3F92000290000F0F4
:10B1700073F903F0B7F9C046000008000040002052
:10B180000000000000000000A8200020A82B0020E4
:10B19000000000000000000063DF704763DF7047BD
:10B1A000A2DF7047A0DF7047F8B54F464646594BBF
:10B1B000C0B4594A1860594B59491A603F229A80C5
:10B1C00000229A60DA60574B574819607F219A60D5
:10B1D0009980DA6002795549D3009B1A9B00CB18FD
:10B1E000DB7E002B03D00CBC90469946F8BDA02412
:10B1F0008026A125E4057601ED0066510325A946C8
:10B20000E6254E46ED006651494D4A4F63510468AC
:10B21000494D4A4E67510C27494D6351494D67517D
:10B22000494D013F67511C2555434F196B508E25E1
:10B230006D00635128356351C123444D9B007E60EE
:10B24000270BE550FBB25DB2002D47DB404BAD084C
:10B250009C46C023AD0065449B009C46EB58FF26EE
:10B2600098464B463B40DB009E4099464346B343DD
:10B2700040269846331C4E46B34046463343664606
:10B28000AB5101261F23351C3B409D40C0272B1C82
:10B290002F4D7F00EB512B60A0230425DB00E550F0
:10B2A00010239C4618356A438A1894440023674645
:10B2B0001376FB71171C62469371264ABB76137096
:10B2C00092225200A3501C3AFE76A35026600379C6
:10B2D0005D4349198E7602F0F9FD84E70F251E4E75
:10B2E0001D40B446083DAD08AD006544EE69B44666
:10B2F0004E463340B340FC369E4098466346B343C7
:10B3000040269C46331C4646B34066463343EB61B9
:10B31000B7E7C046F8250020C822002000260020FC
:10B3200008230020E8250020F41F002038270020F3
:10B330002C07000000E0D701240500004DBF0100EC
:10B340006C0500000C0500001405000080000200E0
:10B3500000E100E0E025002000ED00E008B5054830
:10B3600001F0F4F98021A123A0228903DB00D2059A
:10B37000D15008BDBC25002008B5002802D1FFF738
:10B38000EDFF08BD054801F0E1F98021A123A022CD
:10B390000903DB00D205D150F3E7C046A826002000
:10B3A00038B5094D09482C78002C08D0084902F01E
:10B3B0001DFD0120FFF7E0FF00232B7038BD01F0D9
:10B3C000C5F9044B1C70F9E7D0230020A826002003
:10B3D0000A170000E423002038B5094D09482C78ED
:10B3E000002C07D0084902F001FDFFF7B7FF00234A
:10B3F0002B7038BD01F0AAF9044B1C70F9E7C04668
:10B4000068240020BC2500200A170000C422002068
:10B4100008B5054801F09AF98021A022034B890361
:10B42000D205D15008BDC046BC2500200C05000047
:10B4300008B5002802D1FFF7EBFF08BD044801F072
:10B4400085F98021A022034B0903D205D150F4E7EE
:10B45000A82600200C050000F0B55F464D46444686
:10B460005646F0B4ADB000F051FE0023EE4A802401
:10B470001360EE4AC5259346137053705946062251
:10B480008A70EB4AFF204A60C021EA4A64031360D5
:10B49000E94A49001370E94AAD001370E84A545074
:10B4A00051598143081CC0210143A1205151E54954
:10B4B000C00014600B50F938FF381458E24B234099
:10B4C000C024240223431350E04BE14CCA58E14B03
:10B4D0001A600023E356002B20D102222261626110
:10B4E000DD4ADE49A261A264DD4AE1618021E264B5
:10B4F00010228900A36221626362E362A365226570
:10B500006365E3650C3AE01DD64905F056FFD64B5E
:10B510001A6822609B88A3802023A371A0230322A2
:10B52000D249DB055A50D2495A50A1228021D2007B
:10B5300089039950802109039950CE4B1A7C002A27
:10B5400003D11A745A74CC4A5A61CC4B1A7C002A23
:10B5500003D11A745A74CA4A5A610023C94ACA49A3
:10B560001370CA4AA2201370C94AC0001370C94A96
:10B570001370A0230C22DB055A5004395A50C649D7
:10B580005A5001210E1C1A581B58D2089B0896438A
:10B59000194201D102231E43A223A022DB00D205BF
:10B5A000D3589B0701D404231E43A023E0220C217F
:10B5B0000127DB05D2009950F13AFF3A9B583B40F6
:10B5C000994600D056E2B548FFF7EEFDB44BB54AB8
:10B5D0001EAC1A607F229A804A469A60DA6006ABF7
:10B5E0009A46B14B0422191C50461031984605F07A
:10B5F000E4FEAE49504602F035FD4B4641461E93EF
:10B60000A3606360E36023610123278008AF062203
:10B610001431381C237205F0D0FEA54B10AD0393F6
:10B62000039B291C201C1093676001F023FE039BE1
:10B630004B4610936B60032301206B70AB70291C89
:10B64000023B2B7002F02CF89A4B9B4A1A609B4BE2
:10B650001B78002B01D100F033FB8022984BD205E0
:10B66000D158D158D3580F2291462B7895499343FE
:10B670000E3A13434A46134001321343281C0C3A36
:10B680002B7002F00FF800231E93636006332380B3
:10B690000A3363808133FF33201CE38002F004F817
:10B6A000534600225A60884B414606935346103257
:10B6B000381C1E7105F081FE844B381C984601230E
:10B6C00042465B42938243467F4A41469A6100224A
:10B6D000BE739A75FFF762FD002800D12CE10026A9
:10B6E00001221E9626612282794A0123626140224C
:10B6F000109608966E60AE60EE602E616E61AE616F
:10B70000EE612E626E62AE62EE622E636E637E60EA
:10B71000BE606660A660E660A661E661266266625B
:10B72000A662E66226636663FE603A6174327A61FD
:10B73000684AFB701370684A684BBE611E70131C28
:10B74000FE6107CF07C307CF07C306CF06C3644A0E
:10B75000644B00251A60644B14A91E6001235B42F0
:10B7600098464246614B1A800222614B1E609E80C1
:10B770009D71604B1E601A700332DA701A1C5E6095
:10B780001E625E629E62DE621E635E63103281C96B
:10B7900081C21A1C12A9083281C981C2183316AAA3
:10B7A00003CA03C3201C02F0D1FCA0239B021E96F7
:10B7B0006360F0231B03A3600323E6604E4A2373F8
:10B7C0004E4B4F496361131C2661A16145CC45C3B3
:10B7D00045CC45C319604B4B4B481D7001F082FAB4
:10B7E000002810D14246494B1A80494B1D705B46D8
:10B7F0005B68002B07D0474B1A7C002A03D1464ACE
:10B800001D745D745A61042001F050FF032001F0A3
:10B810003FF9FFF7FDFD0120FFF7AEFD00263F4C8D
:10B820003F4F012580E0C046FC2500208C270020EA
:10B830006C2400201026002015260020162600204B
:10B8400000E100E000100140FF00FFFF04050000E0
:10B85000FC240020DC2500206C420200C4200020D3
:10B86000D4230020784202007C42020054070000EA
:10B870004C070000BC250020D9B30100A8260020F9
:10B88000A1B30100C42200200C070000E423002023
:10B8900068240020D023002004070000D1D001003C
:10B8A00004270020E82300205042020074250020D5
:10B8B000E81F0020142700202DD40100BC290020FF
:10B8C0000C0400008442020049D10100CC26002073
:10B8D000E81F00204426002024260020882600207F
:10B8E00021D101007C260020FC260020F02600202B
:10B8F00074260020942700208C26002031D10100DE
:10B90000CDD0010070260020482600208A26002085
:10B910007226002050260020F5C80100E8260020ED
:10B92000F826002001F0BAFE2378002BFAD026700A
:10B9300001F01AFD3D70F5E743461B7804A98B70B2
:10B9400001230B80434601309A1CFFF72BFC002893
:10B9500000D0C4E64E46C1B2B1430E3E31434E461E
:10B960003140013601AA31431170494683B21B0AA6
:10B970008B430E390B4349460B403343537002232C
:10B9800093709A46102303432060237043466261FC
:10B990006A461B78494693756B4603229A82C2B267
:10B9A0008A430E390A4349460A40013102AE0A432E
:10B9B00032704A4683B21B0A93430E3A13434A46F7
:10B9C00013400B4373700323B37005AB2B6001234B
:10B9D000A8602B811423E860AB8143466060A060BF
:10B9E000E0602061A06128616E605888211C0C33E2
:10B9F0002A1CFFF7D5FB002800D070E60823C2B24E
:10BA00001A43042313432060237043466A461B787D
:10BA1000494693756B4652469A82C3B28B430E39A0
:10BA20000B4349460B40013182B20B433370130A7A
:10BA30004A4693430E3A13434A4613400B437370EE
:10BA40000323B37005AB2B600123A8602B81142363
:10BA5000E860AB8143466060A060E06020616061A7
:10BA6000A06128616E605888211C04332A1CFFF7EE
:10BA700097FB34E65648FFF797FB564B564A00258E
:10BA80001A607F229D609A80DD60544B05A81D607E
:10BA90009946534B1EAC1F709A46524B1D60524B39
:10BAA0009B465A46514B1360514B0422191C984631
:10BAB000103105F082FC4F4905A802F0D3FA414647
:10BAC00001231E95278008AF0622A560381C14317B
:10BAD0006560E56025616372A37205F06EFC464BFC
:10BAE0006760069310AF069B391C201C109301F071
:10BAF000C1FB069B0323109501207B70BB707D600A
:10BB0000013B391C3B7002F045F93C4B3C4A1A6042
:10BB10003C4B1B78002B01D100F0D2F880223A4B2D
:10BB2000D205D158201CD158D3584146102205F0D7
:10BB300044FC364D201C291CA673FFF72DFB002862
:10BB400018D001F029FE042002F026F9FFF706FCC8
:10BB50000120FFF76DFC00262D4C2E4F012501E042
:10BB600002F01CF92378002BFAD0267001F066FE53
:10BB70003D70F5E701235B426B80274B2C78EB602F
:10BB800053461B78A8802881002BDAD04B462348E7
:10BB90001B68011C0022002B08D08D78A5420ED016
:10BBA000013204319A42F8D1052BCAD801219A00FA
:10BBB0008218118094704A4601331360C1E70D88E2
:10BBC000012DEDD15A461268002ABAD1ECE7C046E1
:10BBD000C5D6010004270020E82300208C2B00207C
:10BBE0002D270020942B0020B829002015D7010014
:10BBF0005042020088230020E81F00201427002064
:10BC0000B5D80100BC2900200C040000D029002078
:10BC10002C27002034270020A9D7010070270020FE
:10BC200038B5041E04D10F4D2B78002B10D038BD31
:10BC30000D4D2B78002BFAD10C480D4902F0D6F8A7
:10BC400001230C4A13702B70201CFFF7F1FBEEE769
:10BC50000948074902F0CAF80123084A13702B70FB
:10BC6000F2E7C046C4220020E4230020A8260020DA
:10BC70008F020000D0230020BC2500206824002073
:10BC800098DF7047A6DF704710B58468C268031C50
:10BC90000520944209D098689A8802401868825C0E
:10BCA00000200A709A6801329A6010BD65DF704703
:10BCB0007DDF704779DF704772DF704771DF704753
:10BCC000002210B5C024FF200E4BA4005A609A60D9
:10BCD000DA601A610C4A115981433F38014311510E
:10BCE0000121C03011501160084A1278D2B2002AE6
:10BCF00004D1A3218020C900C005425001220020A8
:10BD00001A7010BDBC29002000E100E08827002047
:10BD10001B4B10B51A68002A1BD11A4B1A68002A4F
:10BD200000D110BD00221A60C223802202219B0094
:10BD3000D205D1500123144CA3702369002BF0D0FD
:10BD40001A68012022615B6898472369002BF7D1AC
:10BD5000E7E7002280211A60C22201230A4C9200E8
:10BD6000C9058B506370A368002BD6D01A680020D9
:10BD7000A2605B689847A368002BF7D1CDE7C04667
:10BD80000001004004010040BC290020C12310B57F
:10BD9000614A9B00D35884B09B054FD592235B002A
:10BDA000D15800294AD00021D1508121E5338900A2
:10BDB000FF33D150594B997E002901D10131516097
:10BDC000022269460A7090215348C90042584250E5
:10BDD00069460392DA7D68460A72DA681968019248
:10BDE0000022DA751A765B6898478E214A4A490024
:10BDF0005358002B0FD0494B9C8A987D84424FD2D8
:10BE000000205050998A9868405C998A013189B223
:10BE10009982434BD050A2233F4A5B00D15800295E
:10BE20000AD00021D1503D4B997E002901D001213B
:10BE30001160DA7D002A42D104B010BDC123364A18
:10BE40009B00D3585B07D0D5842149005358002B61
:10BE5000CBD0324BD87D00283ED15050A321C90011
:10BE600052585A7E8242C0D11A7E002A42D19A7E0E
:10BE7000002A02D10121284A51608120C22226498C
:10BE8000800092008850002268460121DA755A7EAF
:10BE900001700272DA68196801925B689847A4E73A
:10BEA000002454500028B6D06A46147010729A6864
:10BEB0009C75196801925B6868469847ABE7002259
:10BEC00068460121DA755A7E01700272DA681968D3
:10BED00001925B689847AFE700205050A320C00054
:10BEE000597E1258D86842545A7ED87D0132D2B257
:10BEF0005A76B6E7DA751A69D968DA6000226C46B4
:10BF0000587E1A765A760132207201912270196891
:10BF100068465B68984768E70020004038270020A3
:10BF20001C050000031C10B580689C88DA68121A92
:10BF30000420944200D210BDDA68002014401A6830
:10BF40001155DA680132DA60F5E7C046F0B54446CB
:10BF50005F4656464D46F0B4047887B0012C29D090
:10BF6000002C13D0022C0AD104AB1C70C3680193BF
:10BF7000059301F0ABFF5D4B04A81B68984707B021
:10BF80003CBC90469946A246AB46F0BD584C594E33
:10BF9000201C311CFFF778FE00282FD0A268E36830
:10BFA0009A42ECD1032304AA1370504B101C1B6857
:10BFB0009847E4E74368504D1978281CFFF7B2FF13
:10BFC000002813D1AA68EB689A4205D004AB187018
:10BFD000464B04A81B689847A968AA88EB685B1AB7
:10BFE0009A426BD20122454B1A70C8E704AB1C7011
:10BFF0003E4B05901B6804A89847EDE74049414A2D
:10C000008C461579EB009B465B1B9B006344181C18
:10C01000997D10300029C1D101279E608E26BC4633
:10C02000126876008180B2469151664687719660AB
:10C0300056469151996889464E468188715C88467A
:10C0400046468188013189B281802F498C465650FD
:10C0500059680029A2D181796646802088465146D8
:10C060004000029601951E1C9F8A1036019DB8451E
:10C0700005D826E01E1C1036B688864202D05658D7
:10C08000002EF7D01E1C01959F8A10368742EAD0F9
:10C0900000275750B788BC464F4665467D5D6F46C2
:10C0A0000095B588AC460125AA46D4446546FD8175
:10C0B000FD89B580029D009E5651D4E701F006FF30
:10C0C0005DE78023B1885B00994206D08E2149004C
:10C0D0005358002BFCD00123D3605B465D1B084BFB
:10C0E000AD005F190023BB7558E7C046F825002056
:10C0F000E8250020E425002000260020E02500207F
:10C1000038270020F41F00201C0500008021802318
:10C11000194A890230B5D1508023D2210124174A0F
:10C120005B028900535040395350154B54601968D5
:10C130002F2314481D1CC046C046C046C046C046FA
:10C14000C046C046C046814200D0C046013DF2D143
:10C15000946000220C4C2260C046C046C046C046D7
:10C16000C046C046C046C046814200D0C046013BE2
:10C17000F2D1064B1A7030BD00E100E00010014022
:10C18000EC1F00200024F400DC25002020260020E5
:10C19000F0B556465F464D464446F0B4954B964A38
:10C1A0001B6896499A460978137887B0994200D15E
:10C1B000BBE10133DBB2022B00D1A7E11370904A3F
:10C1C0009B009F585346FB181B028A4A1B0A1360A8
:10C1D000012303938B4B002419788B4B1B689946E2
:10C1E000884BC8465B780193864B5B689C46854BC1
:10C1F00065469E787F4B00971B689B46834B1B7858
:10C2000002934B46019A91421FD04A0052180131C5
:10C21000C9B2881B471EB841D2004042AA1801404B
:10C220001078022800D1AEE00328EBD1002BE9D032
:10C23000009A94461C74DB69002BFBD16346009383
:10C240000023019A98469142DFD141466E4A009FF1
:10C2500011605946674A116069466C4A097A117043
:10C26000039A002A00D064E14A46D21A511E8A413C
:10C270000025D2B2059203935E4B039E1B680027F4
:10C280009846614B1B689B465E4B5B6899465D4BCD
:10C290009B7802935B4B1B789C465C4B1B7804930A
:10C2A0005B4B9A4601230093002D28D06A68A96849
:10C2B0002C1CED694346D31A1B021B0A53454ED86A
:10C2C0005B1823606B461B786760A7602374E76187
:10C2D000002E54D021683268301C914204D878E096
:10C2E0001A688A427CD2181CC369891A002BF7D1BC
:10C2F000321C2160E361C461161C002DD6D1019B64
:10C300009C4500D186E0624663460132D2B25B00B2
:10C31000634494460299DB00521A511E8A416146D9
:10C32000524211404B448C4619785C68321C0129FA
:10C33000E2D1217C0029DFD19A686260D968A160CE
:10C340001869E0605B69A361049B002BB2D00022F6
:10C350004346D31A1B0265601B0A5345B0D94346B6
:10C360009A1A1202120A8A4241D26B461B78891A23
:10C3700021606760A7602374E761002EAAD1221CA8
:10C38000A346161CB9E75768002B00D1F6E0181C2D
:10C390009F4200D1BCE0009A944602E0974206D04A
:10C3A000101CC269002AF9D1624600922AE762464F
:10C3B00000923A1E824200D1AAE01368D269C2619B
:10C3C000002A00D1AFE010688446634413604346FE
:10C3D00018E7521A3260221CE661A346161C8CE74D
:10C3E000521A1A602160E361321CC46184E727603D
:10C3F00068E7C046DC250020152600201626002010
:10C40000182600208C27002010260020142600204B
:10C41000FEFF7F006246644B1A705A46634B1A60F7
:10C42000039BB34200D163E0002E00D1A3E0604B38
:10C430006049614DC858614B34681A682E78831A78
:10C440001B021B0A03339846002E21D18026D127D8
:10C450007602BF00CE51403FCE51C0238027584EB8
:10C46000BF025B00F750376001260E605549564BFE
:10C470000F682F21C046C046C046C046C046C046D1
:10C48000C046C0469F4200D0C0460139F2D12E704E
:10C490004346A34200D2231CA8249A1812024549FD
:10C4A000130AE400424D0B514A591B1A121A120288
:10C4B000120A1B0203321B0A9A421DD94B590B5117
:10C4C000404B41491A682F23C046C046C046C0466B
:10C4D000C046C046C046C0468A4200D0C046013B66
:10C4E000F2D180218023364A89025B00D15003E0DB
:10C4F000059B002B00D097E70023344A137007B048
:10C500003CBC90469946A246AB46F0BD002355E69A
:10C51000DF69002F3CD0021C1368D269B846C261A3
:10C52000002A00D04FE743466CE600230027039320
:10C5300050E6414600250022002613E01868B84264
:10C540001ED83F1A1218D8681E60DC69002807D070
:10C550005146DD611D1C51180902090A5960986095
:10C56000231C211C002BE9D1104B196000230393DD
:10C570000133059380E6FFF7C9FDBDE7002341E6DF
:10C580000A4AC71B116003931F600123059373E6DA
:10C590000122084B9A60002398460133029300233E
:10C5A000021C9B4609E7C0468C270020102600206D
:10C5B000040500000010014020260020DC2500209A
:10C5C00000E100E0EC1F00200024F400142600200D
:10C5D000F0B5564644465F464D46F0B44B4E011CFE
:10C5E00087B0301CFFF79EFC041E07D0201C07B04C
:10C5F0003CBC90469946A246AB46F0BD444F454DE3
:10C600003A79D3009B1A9B00EB189B7D002BEDD150
:10C61000414B301C191C9946FFF736FB0028E5D129
:10C620003E79F3009B469B1B9B00EB18181C9A7DE0
:10C630001030002A01D01124D8E74A469A603A689F
:10C640008E2701217F0084808171D4519160996887
:10C65000D4518946BA464F468188795C8846474618
:10C660008188013189B281802C498C4657505968A4
:10C670000029BBD181796746802088465146400019
:10C680000497029403969C8A1F1CA4461037029CB0
:10C69000039EC44505D324E01F1C1037BF88874282
:10C6A00002D05758002FF7D01F1C029403969C8A83
:10C6B00010378442E7D000245450BC88A4464C462E
:10C6C0006646A45D02AE0194BC88A4460124A2463D
:10C6D000D4446446F481F489019EBC80049C1651C4
:10C6E000D1E78023B9885B0099420DD08E214900A3
:10C6F0005358002BFCD00123D3605B469E1B0023C4
:10C70000B600AD19AB7571E70F24F6E7E8250020F8
:10C71000F41F002038270020E42500201C0500001D
:10C72000084B10B55A68002A0BD0002809D1EFF346
:10C73000108272B604491C680C605860002A00D14F
:10C7400062B610BDAC29002000E100E0234AF8B534
:10C750005168031C082000293BD0002B39D05969AF
:10C76000002936D000211974EFF3108472B61C49E9
:10C7700007384D68002D08D11A4E48608035705931
:10C78000194F3840086000207751002C00D162B664
:10C79000517894784D1CEDB2641B661EB44164421E
:10C7A00025401478AC4215D04C0061185468C9007B
:10C7B000A446614400290DD002244B600C705570D2
:10C7C000FFF7AEFF802180230020064A49035B006B
:10C7D000D150F8BDFFF7A4FF0420FAE78C27002012
:10C7E000AC29002000E100E0FC06FFBCA021F0B570
:10C7F00000234746294A490080B45350043153501E
:10C8000004315350043153504C3953500431535078
:10C81000234B1B68002B31D0224900265258224955
:10C82000224F0C68141B00222402240A904602E0C6
:10C83000002D14D02B1C1A68A24210D8A41AB618C6
:10C840001A7CDD69002AF3D0424699691A745A6944
:10C850003B68002B15D0101C9847002DEAD1144BD3
:10C8600014491A780B789A420ED0134A9B009E50B6
:10C8700080218023114A49035B00D15004BC9046BB
:10C88000F0BD081C9047D3E70132D3B2022B01D090
:10C890000B70EAE700230B70E7E7C0460010014089
:10C8A0001026002004050000DC250020FC250020C7
:10C8B00015260020162600201826002000E100E0A2
:10C8C00070B5074C011C07482678FFF7DDF9051CF9
:10C8D000002E03D00023237001F0F8FA281C70BD4D
:10C8E000E02500200026002073DF704776DF7047C8
:10C8F00075DF704710B5184B82B01888174B9842F7
:10C9000014D0174A174C13780133DBB21370217B14
:10C9100099420DD200231370237C002B12D163693E
:10C92000002B03D0002201A80270984702B010BD6E
:10C930000D49FFF7DDFF0028F8D0A369002BF5D0E3
:10C940009847F3E73B21FFF7D1FF0028E7D0A36921
:10C95000002BE4D09847E2E78A260020FFFF000082
:10C96000722600208C26002048260020F0B55F4665
:10C97000564644464D46F0B485B09A460EAB80CB41
:10C98000061C1B8800919B463B88904601930388B8
:10C99000002B5BD00023994602AB0024DD1C03E092
:10C9A00033880134A3422ADD7368A1009C46042227
:10C9B000614403A804F001FD03A8291C0022FFF72D
:10C9C00075F9002826D12B784345E9D14B46002B39
:10C9D00027D043463A88D3185B4539DC524403A834
:10C9E000291CFFF763F9002814D13B882A78013409
:10C9F000D3183B80012399463388A342D4DC4B46AD
:10CA0000002B23D03B88019A013B9B1A9BB20C2040
:10CA1000FF2B18D905B03CBC90469946A246AB46C0
:10CA2000F0BD42463B889A1802325A4510DC6946EE
:10CA30005246013309789BB23B80D1543A88013287
:10CA400092B23A80CAE75246019953540020E1E776
:10CA50000C20DFE7F0B547461C1C80B482B008AB61
:10CA600080CB90461E88022200970196231C051C4D
:10CA7000FFF77CFF002807D100970196281C41464C
:10CA80001022231CFFF772FF02B004BC9046F0BDD9
:10CA9000F0B5474680B4644B051C1C7886B008206E
:10CAA000002C03D106B004BC9046F0BD5F4B604E35
:10CAB0001D70984600235F4F3360B380B3717B785D
:10CAC000002B43D1BB78002B45D0012D02D0002292
:10CAD000022D0AD1584B1B68002B00D197E0012191
:10CAE000564A08201170984772780123002A05D110
:10CAF0000133072B6BD0F25C002AF9D0022D6DD0E8
:10CB000077D9032D65D0042D71D13B790422002BF8
:10CB10006DD043461A70484B1B68002B06D03978FD
:10CB2000002903D046490978002974D00021454BDB
:10CB300019700023009301930293039304930593C8
:10CB4000042A61D8404B92009B589F46012DC1D0CA
:10CB5000BB78002BBBD10022C7E76B463A8A1A820A
:10CB60006A467B6953820322384B1A706846FFF786
:10CB7000BBFE002896D1304B1B68002B42D0334AB5
:10CB80001078984700208DE70222304B01961A70EA
:10CB900001236A4613706B46BA895A826A46BB689B
:10CBA0001382E3E70123294A019613706A46137042
:10CBB000DCE70022254B1A70DDE76B463A8B1A82C0
:10CBC0006A46FB6953820422204B1A70CEE7002488
:10CBD00094E7FB780322002B9BD196E7BB78002BD0
:10CBE000F7D00222002CF4D043461A709EE70022B0
:10CBF000FAE7012DFBD17B78002BEFD0002CE8D099
:10CC00000122F1E700204DE7002AB4D0AEE70B4A3D
:10CC10001370002269E70B4A013107201170984711
:10CC200043461A7885E7C04644260020882600201F
:10CC300074260020242600207C26002021260020A7
:10CC400022260020712600208C420200232600208C
:10CC500093DF704792DF704790DF704730B51B4B12
:10CC60001B4A5B88118883B099420FD852889A4238
:10CC70000CD3184B5B69002B03D0012201A8027072
:10CC80009847154C0023237003B030BD124C237815
:10CC9000002B08D00F4B5B69002BF3D0002201A8BA
:10CCA00002709847EEE70D4B0A4D1B78002B0AD017
:10CCB000A9680B4801F09AF80028E3D0AB69002B73
:10CCC000E0D09847DEE76968F3E7C0468026002099
:10CCD000482600208C260020702600207226002086
:10CCE000502600207BDF7047F0B5444656464D463F
:10CCF0005F461388F0B49846002313802D33C35C3D
:10CD000087B0051C0E1C141C002B00D0BCE0AB78B7
:10CD1000002B00D0E4E0EB78002B00D0A8E06B689B
:10CD2000002B15D019782388DA1C424500D9A3E0DE
:10CD30000222F2542388083201339BB22380F2543A
:10CD4000238801339BB22380F1542388013323804D
:10CD50002B89002B00D0F5E02B8A002B00D0FFE0C0
:10CD60002B8B002B00D009E12B6A002B45D02288A9
:10CD70000C20911D414500D97FE0198805388B466C
:10CD8000052900D879E0A54F5F44BFB2B946A44F4A
:10CD9000BC46B94500D870E05F88BA46052F6CD90B
:10CDA0009E4F6946B946D1444F46CF81CF896745EA
:10CDB00063D99C4FBB4503D0BA4501D0D3455CD85D
:10CDC0000521B15422880D31013292B22280B15432
:10CDD0002288013292B222801988B2181170090A91
:10CDE00051702288023292B222805988B318197089
:10CDF000090A59702388023323806F6A002F2CD0D0
:10CE0000BA882188131D5B180C20434535D8931C24
:10CE1000FE2B32D803327254FF22238801339BB297
:10CE20002380F254238801339BB223803A88F3187D
:10CE30001A70120A5A70238802339BB22380BA8870
:10CE4000002A0AD0B9680538002916D0F01804F075
:10CE5000B4FA2288BB88D31823802C23EA5C002AEA
:10CE600000D099E02B78002B00D0DDE0181C04E006
:10CE70002288D11C414554D90C2007B03CBC9046B7
:10CE80009946A246AB46F0BD43460C20082BF4D988
:10CE900004A8FEF713FF0028EFD1082223880921F8
:10CEA000F2542388133201339BB22380F25402AB35
:10CEB0009C462088153A013080B2208061443018A9
:10CEC00004F07BFA238802AA0633127A9BB22380ED
:10CED000002A00D00122F25423880133238016E770
:10CEE00023880C2004334345C7D804A8FEF7E2FE8C
:10CEF0000028C2D103222388F2542388163201333A
:10CF00009BB22380F254238802AA01339BB2128978
:10CF10002380F3181A70120A5A7023880233238070
:10CF2000F9E60221B15422880139013292B22280FD
:10CF3000B1542288521892B22280B35423885B18CD
:10CF40002380ECE64346281C01930094083002211C
:10CF50000622331CFFF77EFD002800D1FCE68CE79B
:10CF60004346281C01930094103003210722331CF0
:10CF7000FFF770FD002800D1F2E67EE74346281C4B
:10CF800001930094183014211522331CFFF762FD21
:10CF9000002800D1E8E670E7AA6A002A00D17FE005
:10CFA00000229A460C2391469B4626E022880333B2
:10CFB000B3541622238801339BB22380F254238872
:10CFC00001339BB223803A88F3181A70120A5A7000
:10CFD0002088023080B22080BA88002A09D0B9683F
:10CFE00000295DD0301804F0E8F92288BB88D318F6
:10CFF00023804B460133DBB299465346EB5C4B45ED
:10D0000000D82FE74B465F465F43AB6A9C466744B8
:10D01000BB889A1CFE2AC9D92EE7C0467FF3FFFFC2
:10D020007DF30000FFFF00002A880720012A00D1BD
:10D0300023E72288901C404500D91DE7012B05D12C
:10D040006B7802339B18984500D215E74346023BA4
:10D0500004AF9A1A93B23018391C98463B80FEF7F9
:10D0600027FE002800D008E72B78022B1AD0012BCE
:10D0700012D0434608213B803B88FE2B00D9FBE6BB
:10D0800022880133B3542288013292B22280B154F3
:10D0900022889B182380F0E66B789845EAD2E8E76F
:10D0A0000720EAE63B8809214345E5D9E1E7C04688
:10D0B0007047C04661DF704752DF704767DF7047D7
:10D0C000A9DF7047A8DF70477FDF70477047C04611
:10D0D00000B5037883B0002B01D003B000BD6B46D0
:10D0E000D81DFFF7EDFB094B1A88094B9A42F4D083
:10D0F0006B460848D979FEF715FF074B1B78002BC4
:10D10000EBD10122054B1A70E7E7C046F01F002063
:10D11000FFFF000004270020F8260020E82600205A
:10D1200008B5002802D10330FFF7B2FC08BDC046A5
:10D1300008B50378002B04D1024B3B21188800F07E
:10D1400029FB08BDF01F002070B50D1C161C002423
:10D15000002A07D0285DFFF73BFA0028FAD10134F6
:10D16000B442F7D370BDC046F0B55F4656464D4653
:10D170004446F0B4374B85B01B68002B07D0984766
:10D1800005B03CBC90469946A246AB46F0BD324B3A
:10D190001B78002BF4D0314B00261C689B46634261
:10D1A0005C412F4BE4B29A462E4B99462E4B984643
:10D1B000002E26D12A4D2B78002BE1D103A8FFF7B2
:10D1C0007BFF052819D000280AD1039B002B34D0FF
:10D1D000264B1B680193002B02D00398019B9847B4
:10D1E000002C11D01E4D01242B780026002BC7D116
:10D1F00003A8FFF761FF0528E5D1002CC0D1012667
:10D2000002E0002CBCD155462B78002BB8D14B4600
:10D210001B8803A90B8043461868FFF74BFF0528BE
:10D2200008D0002804D1434618685B461B6898471D
:10D230000024BDE7002EA3D1D4E70D4FBB68002B1F
:10D24000C6D01A680020BA605B689847BB68002B9C
:10D25000F7D1BDE7902B002088270020142700205D
:10D26000C8260020B429002054270020F4260020DE
:10D27000BC29002060DF704710DF7047304B1B78FF
:10D28000012B00D070472F4B1B681B07FAD1F022EF
:10D290002D4B1B68134027D12C4B1B68134229D000
:10D2A000284B1B681B07EDD1F022274B1B6813404E
:10D2B000402B32D0244B1A68F0231340A02B01D00E
:10D2C000D02BDFD1214B1A68F0231A42DAD1204A41
:10D2D0001368012B04D01F4B13601368012BFCD182
:10D2E000C0221D4B1A60CDE7102B0FD1174B1B68C6
:10D2F0001342D9D1194A1A4B1A608022194B1202D3
:10D300001A600F4B1B78012BCAD0BBE7302BCBD157
:10D310000E4B1B681342C7D1ECE70C4B1B68134242
:10D32000C8D1C12380220121DB00D205D150044B9A
:10D330001B78012BA6D1034B1B681B07BAD0A1E7B2
:10D34000E00F00F0E40F00F0E80F00F0EC0F00F049
:10D3500000EC06407593000014EC0640DFFF07C0A8
:10D3600004050040186C0040F0B546464F46C0B476
:10D37000284B294A99461B7887B0284E284C90465E
:10D38000284D002B25D03368002B2CD09BB26A4649
:10D39000D380A88A244A904202D0AA7D002A03D1D1
:10D3A00001234A46137019E0142BF9D8002302A96F
:10D3B0000B604B60AB890B80174BCB606B46063321
:10D3C0008B6001238B70FEF75DFC0028E8D14B4693
:10D3D0001870A168E368591A316006D107B00CBC17
:10D3E00090469946F0BD0023D1E7142900D91421B5
:10D3F0002368A0889C4600236746A2680240BA5C66
:10D400004746FA54A26801330132A2608B42F3D13D
:10D410003360BBE70027002018270020EC260020FF
:10D4200004270020CC260020FFFF000030B5038831
:10D4300085B0041C112B00D177E02CD9122B1CD005
:10D44000502B22D1874DC288EB899A4200D1DEE071
:10D450000120FEF7E5FB2388112B38D0502B52D04A
:10D46000102B46D0112B36D01B2B00D0EDE0237AA9
:10D47000002B00D172E005B030BD031C7A4A08339E
:10D4800003CB03C2FFF7EAFB2388552BE4D8774987
:10D490009A008A589746102BF7D18288744B1A80CD
:10D4A000031C714A183303CB03C20022714B1A705C
:10D4B0006C4BDB89002BE5D00020FEF7B1FB01208F
:10D4C000FEF7AEFB6C4BA2881A802388C4E70122CA
:10D4D0006A4B52429A820021694AA3881170694AB4
:10D4E00012889A42C7D10120FFF7D2FA002841D111
:10D4F000C1E7A288614B9A82A37DA288012BBAD191
:10D50000604B1A80B7E75D48E388028A9A4200D1EF
:10D5100090E082889A42AED18369002BABD0211C67
:10D52000228A1231984723889CE70122504B5242AD
:10D530001A8000224F4B54481A70FFF707F9002851
:10D54000A2D0484B9B69002B9ED0984723889CE72C
:10D55000A088132100F01EF923887DE74B4B05219D
:10D560001878013004F024FFC8B2FFF791FA0028C0
:10D5700000D180E7464B1B68002B00D17BE7984722
:10D5800079E7A0880021FFF799FD238864E7002050
:10D59000FEF746FB3F4B9968DA68914259D1002269
:10D5A0003D4B1A70238857E7334B0021188800221F
:10D5B0000023FFF785FD23884EE7A079A27B002892
:10D5C00000D149E7043A022A00D945E76946022812
:10D5D00044D001230B70C1235B008B80A088FFF730
:10D5E00071FD238838E7244B852118880022002309
:10D5F000FFF76AFD23882FE7FDF70AFF0120FDF7FB
:10D60000BBFE01221C4B52421A80238824E7038A66
:10D61000022B00D01CE7837CDB0700D532E71A48D9
:10D62000FFF794F8002800D12EE7AB69002B00D05B
:10D630008BE729E7228A022A00D06AE70123A27C2D
:10D6400013400DD00123837515E7102B00D012E78E
:10D6500052E79B68FFF788FE2388FDE60870BAE76B
:10D66000837508E78C26002080260020A042020057
:10D670008A26002072260020F01F0020CC260020E1
:10D6800022260020F0260020502600208826002098
:10D69000FC26002004270020F826002048DF7047E1
:10D6A00068DF70477CDF70477ADF704777DF70474D
:10D6B00064DF70478CDF70478ADF70477FDF704719
:10D6C00075DF704700B5037883B0002B01D003B03D
:10D6D00000BD6B46D81DFFF7F3F8094B5A88094B7C
:10D6E0009A42F4D06B460848D979FEF71BFC074BE9
:10D6F0001B78002BEBD10122054B1A70E7E7C046DF
:10D70000D0290020FFFF000004270020342700203C
:10D710002C2700200023F0B585B0009301930293DD
:10D7200003930378002B02D18388012B01D005B02D
:10D73000F0BD174C827923789A42F8D1027A002AF8
:10D740001BD06B46DF895E899D89031C51008918B7
:10D7500089000E310E33411806E0032A01D11E89DB
:10D760005D890C338B4204D01A88022AF5D11F89B7
:10D77000F7E76B46DF815E819D81E268002AD6D0A3
:10D7800069464388201C4B8001230B709047CEE7ED
:10D79000D029002076DF704708B50248FFF78CFFDC
:10D7A00008BDC0468044020030B50B7885B00D1C22
:10D7B000022B2ED0032B24D0012B01D005B030BD7D
:10D7C0004A880028FAD042808C890A31C4806D8949
:10D7D00085808988018118498A42EFD0002CEDD0DC
:10D7E000694600200B70487001A90B704B70013323
:10D7F000CB806B468880101C4C808B60FEF740FA13
:10D80000DCE7FDF7ABFD0120FDF712FEFFF7C4FFDB
:10D81000D4E70120FEF704FA2B7A002BCED00024A7
:10D820006B68185DFEF7D4FE0028F9D12B7A01341D
:10D83000A342F5D8C2E7C046FFFF0000F0B5474657
:10D84000184E194A337880B4184D194C9046002B65
:10D8500005D0286800F0A4FA002820D13070A26812
:10D86000E3689A1A2A6002D104BC9046F0BD142ADB
:10D8700000D91422236800209C46A1886746A3682B
:10D880000B40FB5C47463B54A36801300133A36067
:10D890009042F3D1286000F083FA0028DED0012303
:10D8A0003370E1E7352700205C2700203027002077
:10D8B00004270020F0B544465F4656464D46F0B476
:10D8C000038887B0041C1F2B06D8A04A9B00D3589E
:10D8D0009F469B68FFF7B2FF9D4B1D78002D12D02D
:10D8E0002388302B00D149E100D81DE1322B00D133
:10D8F000D7E0332B07D1D523964D5B00A288EB5A96
:10D900009A4200D169E19448944A4388934209D0ED
:10D91000A28893421FD007B03CBC90469946A246CD
:10D92000AB46F0BD2388112B00D1F7E0392BF2D1A3
:10D930008388002BEFD0A2899A42ECD1C368002BD8
:10D94000E9D0022202A90A70221C12320392228A12
:10D950000A729847DFE72388112BE7D1C368002BB1
:10D96000D9D0032202A90A70043A42809847D2E72C
:10D970000020FEF755F97A4B9968DA689142A8D1F0
:10D980000022784B1A70724B1D78A7E70020FEF733
:10D9900047F90120FEF744F96D4BA0881D78002D52
:10D9A000B1D0714B1B68002B00D197E7A827694EB7
:10D9B000FF37F35D002B00D090E7D5225200B05224
:10D9C0006A4A01211360D4225200B354023AB3547C
:10D9D000674B321C1B683360FFF73EF9002800D00C
:10D9E0007CE70123F3557BE7002380888521002213
:10D9F000FFF764FE564B1D7870E7037A022B00D0C8
:10DA000081E7FFF7C9FE524B1D7867E7112399465E
:10DA1000017C8144CB0800D15EE700270CE01A1F8F
:10DA2000012A5FD9063B012B4AD943460133FF182F
:10DA3000CB089F4200D34FE74B46DB5D98464B46F1
:10DA4000DB195B789A1E012AE9D843465B089A469F
:10DA5000EBD0BD1C4D44002603E00136023556458F
:10DA60003ED20220291C02AAFFF722FE0028F4D190
:10DA700002AB1B88012BF0D102AB9B78022BECD1BF
:10DA8000201C3C4908303C4AFFF714FE304B1D78FF
:10DA900024E7211C80880831FFF712FE2C4B1D78EB
:10DAA0001CE7D5232B4D5B00A288EB5A9A4200D18C
:10DAB000D0E02948294943888B4200D029E72AE74A
:10DAC000B91C4944102002AAFFF7F2FD002807D133
:10DAD00002AB1B88012B03D102AB9B78022BCFD06A
:10DAE000217CA2E743469B089A469ED0BD1C4D442C
:10DAF000002603E0013604355645F1D20220291CE8
:10DB000002AAFFF7D5FD0028F4D102AB1B88012B38
:10DB1000F0D102AB9B78022BECD1B1E7A3880F4A7E
:10DB2000934200D0F7E619E7112B00D0EBE6D521A0
:10DB3000084A4900A388515A994200D185E0064815
:10DB4000064942888A42EBD1E9E7C046F843020021
:10DB50002D270020E0290020D0290020FFFF000011
:10DB600004270020342700208C2B0020942B002039
:10DB7000702700208044020078440200D323824DA5
:10DB80005B00EE5C0433A288E95A914291D1E788A8
:10DB9000002F00D076E0211C653BFF3B5E43AE19B1
:10DBA0000E310422301C03F008FC211CB01D123180
:10DBB000042203F002FCA08800F044FC002800D1FD
:10DBC000A1E6A823FF33EF54A18800F0EFFA032267
:10DBD0006E4B1A70A2885A8095E6D3235B00EB5CEB
:10DBE0009C46A623FF33EF5CE388002B14D1A68963
:10DBF000002E11D06648238A834200D1AEE0221C59
:10DC00000023163205E00632911F0988814200D1B7
:10DC1000A5E001339E42F6D800239846424602AB67
:10DC20001A70462362465343EB181B7901379F4213
:10DC300000D07FE0012302AA1370A188012000F028
:10DC400031FBA08800F0EAFA5DE6A8230021FF334B
:10DC5000D15458E6D3235B00EB5C9B46E388002B52
:10DC600017D0A6230026FF33EE54A18802A800F0A7
:10DC700089FB002800D083E002AB1B78002B00D189
:10DC800041E6DAE7002000F00DFBA08800F0C6FABC
:10DC900039E65B4646225A43AA181379217B591864
:10DCA000052955DCC9B28946019111714B4565D2F0
:10DCB000462659465A004E43D21892000A32961907
:10DCC0004A46D31A9A00D3185B000E3398460023B5
:10DCD000271C9A460E37AE19A044301C391C0A2264
:10DCE00003F06BFB53460A3773810C364745F4D17A
:10DCF0005B4646225A434B46013B5800C3189B00E3
:10DD00009B18A918EB180A895B8A9A42A9D9019B2A
:10DD1000052BA6D06A46A6231279FF33EA54A088C1
:10DD200000F090FB002800D1EDE5A8230022FF338E
:10DD3000EA5449E7A623FF33EF54A18802A800F074
:10DD400021FB002898D0A8234246FF33EA543BE742
:10DD500005211171052201929146A7E700235A007F
:10DD6000D3185B00E318D9897B00DB199A00604661
:10DD700046234343D318EB1899824DE79946B7E7FA
:10DD8000A823FF33EE541FE7E0290020CC27002012
:10DD90000229000068DF704777DF704748DF70476F
:10DDA00010B5072384B0142802D9181C04B010BD84
:10DDB0000B4C0C49628801338A42F6D001A9063B1C
:10DDC0000B70013B4B702389C8804B8000238B80F4
:10DDD000054B101C8B60FDF753FF031CE5E7C046A5
:10DDE000D0290020FFFF00005C270020F8B54F4637
:10DDF0004646304B021C5868C0B4002808D0002AA0
:10DE000006D00720042905D80CBC90469946F8BDD9
:10DE10000820F9E750690028FAD00024507CA14678
:10DE2000012840D0EFF3108572B6234C01206768BB
:10DE3000002F0AD16060214880378446204EC059A7
:10DE4000304020606046C6510020002D00D162B6EF
:10DE50005C789D78671CFFB2ED1B6E1EB5416D426C
:10DE60002F401D78BD4220D065002C195D68E4006C
:10DE7000AC466444002C18D0012562602570114A1C
:10DE8000114DAA58E160A2604A46226100226261F7
:10DE90005F70FEF745FC80218023084A49035B0040
:10DEA000D1500020B0E78946BCE7FEF739FC0420DA
:10DEB000AAE7C0468C270020AC29002000E100E042
:10DEC000FC06FFBC0405000000100140F0B55F46F1
:10DED00056464D464446F0B45F4E604F357983B0A8
:10DEE000EB009C465B1B9B00FB185868002805D084
:10DEF0008122C223316892009B00CA5063465B1B9B
:10DF00009B00FB18191C1031CA79002A0DD01A7E0B
:10DF1000002A28D0002800D198E08121C12332684E
:10DF200089009B00D150112016E00120C8714C4996
:10DF30005A76D9601A769B7E002B46D063465B1BCF
:10DF4000980038184268002A18D08121C123002087
:10DF5000326889009B00D15003B03CBC9046994682
:10DF6000A246AB46F0BD3E4A1A6101221A766346CC
:10DF70005B1B980038184268002AE6D1A221346859
:10DF8000490062502532FF3293461C3A91468A4638
:10DF9000A84601935B46E1584B1E99414B46E25817
:10DFA0005346E358C9B25D1EAB41DBB2002A14D11F
:10DFB000002B30D10029EDD0454663465D1B002380
:10DFC000AD007F19FB750320C6E792213268490036
:10DFD00053501C3953501060B0E70029ECD1002B8E
:10DFE00032D1C27D002A21D14B46E250A323DB006F
:10DFF000E358031C1033427ED9799142CAD80022DB
:10E00000DA71019B9B00FF18BB7E002B20D00123FF
:10E0100000202360A0E745460029CED163465D1B62
:10E020000023AD007F19FB750F2095E74A46A32119
:10E03000A350C900437E6158C468E154437E3468EC
:10E040000133DBB24376D4E74546E7E7112083E7A7
:10E050000123002063607FE7F41F002038270020A1
:10E060005827002070B5021C00291AD0032307206E
:10E070000B4000D070BD101C2A4A012511604821B8
:10E08000294A2A4C11802A4A136023682B420AD05D
:10E0900080232849E550FFF7EFF8002808D02560D5
:10E0A000E8E70720E6E72349FFF7E6F80028E1D193
:10E0B0000124214B1C70EFF3108272B61F4E73685F
:10E0C000002B08D180207460184C1D4D2158294028
:10E0D000316025501C1C002A00D162B6194D2B78E6
:10E0E000002B01D1FDF7ECFDEB68201C0133EB6048
:10E0F0000123AB70FEF714FBC5220C4B92009A581B
:10E10000520206D57068002805D18022D2031A6019
:10E11000B0E70D48AEE780223368D2031343336083
:10E120000020A7E754270020B429002000E100E0E8
:10E13000902B0020B1D0010088270020AC290020BE
:10E14000FC06FFBCBC2900200220000010B592B0E4
:10E150001F236A46041C14489380D380C3785B074E
:10E160001BD502A901AAFEF7BFFD002813D1002C80
:10E1700015D0E378002B10D16B46201C9A1D0AA9FC
:10E18000FEF7B2FD0AAA002805D16B4602A819794C
:10E190009B79FDF791FD12B010BD0720FBE76B46A0
:10E1A000221CDC80F1E7C04694270020F0B54746EA
:10E1B000D32380B4844615485B00C75C144B94B0ED
:10E1C0001D688846002D1DD046235F43C3199E78E5
:10E1D0000022104B03E001320433AA4212D09C7893
:10E1E000B442F8D11988C45BA142F4D10A4B1A6831
:10E1F000002A07D0434601A84380012303706346E9
:10E200004360904714B004BC9046F0BDE029002064
:10E210008C2B002070270020B8290020D422F8B5CC
:10E220001C4C5200A35C051C0133DBB2A3541A4AF8
:10E230001268934208D3A8230022FF33E254174BFD
:10E2400003321A705880F8BDA62300264627FF33F4
:10E25000E6540133E15C04220131C9B24F43E15479
:10E260000F4BE71989005918381C03F0A6F83E71C6
:10E27000281C01213A1CFEF7EFFC0028E3D0A8235C
:10E28000291CFF33E654FFF791FF0322034B1A705A
:10E290005D80D8E7E02900208C2B0020CC270020CF
:10E2A00070270020F0B544465F4656464D46D323BE
:10E2B000F0B48C462D495B008346C85C2C4B83B080
:10E2C0001C689846002C46D0462358430B189E786D
:10E2D0000022284B03E001320433A2423BD09D7858
:10E2E000B542F8D11F880D5AAF42F4D1224B1B68BA
:10E2F0000193002B2FD0214B1E689A46052E2AD859
:10E300006246B7001E4DBB191B019946EB185A8097
:10E31000043309184622181C03F04FF85B46002B03
:10E3200020D000234A465355BF193F01019AEB19EB
:10E33000DA64534601361E60A6420CD10024EB6C11
:10E34000281C984743461B68013450359C42F6D33D
:10E3500000235246136003B03CBC90469946A24647
:10E36000AB46F0BD02234A465355DDE7E0290020C5
:10E370008C2B002070270020B8290020942B00202F
:10E38000CC270020F0B54E4645465746D323E0B48F
:10E39000A62746242A4D5B008946E95CFF37EA5DE3
:10E3A0004C4353009B189B00291980461B19087980
:10E3B000EB18561C82B00A33844686423BD0011CBF
:10E3C000AA46013982422ED291421AD0561C1A898D
:10E3D00073009B199B001B19E818008A01328242C6
:10E3E00019D001A9431E0A804B80434600224846AB
:10E3F0001A70FEF72DFC02B01CBC90469946A2464E
:10E40000F0BD2A191B891289934211D001A9013349
:10E410000B804A80E9E753440A33EA5D0132EA554A
:10E42000F2B29445D0D80123424600201370E2E7AF
:10E4300000234E1CF1E71B890A899342E6D1F2E7DB
:10E44000E0290020A622D32330B5124CFF32A25C73
:10E4500083B05B00E35C01A9002A0DD146225A4338
:10E46000A218D2880A8046225343E3181B894B80A6
:10E47000FEF7F0FB03B030BD013AD2B25500AA1846
:10E4800046255D4392005219A218528A01320A8031
:10E49000E9E7C046E029002003210A4802680A4350
:10E4A0000260094802680A4302600849084A094BA9
:10E4B0009B1A03DD043BC858D050FBDCFEF7DEFEA0
:10E4C000FCF72EFE2405004054050040DC47020006
:10E4D000E81F0020A8200020FEE7FEE7FEE7FEE799
:10E4E000FEE7FEE7084B10B5041C002B02D000210C
:10E4F00000E000BF054B1868836A002B00D09847E6
:10E50000201C05F097FEC046000000009444020065
:10E510000E4B70B500251E1C0D4CE41AA410A5422C
:10E5200004D0AB00F35898470135F8E705F084FEB6
:10E53000084B00251E1C084CE41AA410A54204D068
:10E54000AB00F35898470135F8E770BD9C200020D8
:10E550009C2000209C200020A0200020031C82186A
:10E56000934202D019700133FAE77047F0B58BB0CF
:10E57000141C1D1E129906DA802424062B191D1C5A
:10E58000141C2D2300E000230B702023149E032273
:10E590009E43462E07D0331C453B59424B411099B0
:10E5A000013ACB181093109B00920193139B221CED
:10E5B000029308AB039309AB04932B1C01F0CCFD31
:10E5C000071C472E02D1119BDB072CD5109BFB1893
:10E5D0000793462E14D13B78302B0CD1201C291CDC
:10E5E0000022002303F000FF002804D10123109A29
:10E5F0009B1A139A1360139B079A1B68D3180793EF
:10E60000201C291C0022002303F0EEFE002801D06C
:10E61000079B0993099B079A934204D25A1C0992BB
:10E6200030221A70F6E7381C099B159ADB1B136021
:10E630000BB0F0BDF7B52B23071C0C1C0270861C19
:10E64000002901DA2D234C427B70092C1CDD6B461E
:10E65000DD1D201C0A2103F0ABFE013D3031297085
:10E66000201C0A2103F0BEFD041E092CF1DC013D33
:10E6700030342C706B460733301CAB4209D92B78F1
:10E68000013533700136F5E73023E4183370B01CE0
:10E690007470C01BFEBD0000F0B593B00C1C089256
:10E6A0000993189E051C02F06FFE0368181C0B935B
:10E6B00000F0EEFD0023216810930C90277E336854
:10E6C0000722C90501D59B1800E0073393431A1CA4
:10E6D000083232601A685B68A264E364A06CE16C83
:10E6E00000F088FD012818D1A06CE16C0022002305
:10E6F00003F080FE002803D0231C2D2243331A7020
:10E70000B64B0A93472F01D9B54B0A9303232268CE
:10E71000236101339A43226012E0A06CE16C00F0A7
:10E7200069FD266800280DD1AE4B0A93472F01D909
:10E73000AD4B0A930323311C2361013399432160BC
:10E74000002680E080216068C900431C01D10623B7
:10E7500009E0A26CE36C672F01D0472F04D1002899
:10E7600000D0C0E101236360636831430093232339
:10E7700021600191002106AA9B1802930FAB03931D
:10E7800010AB05930497A26CE36C0691281CFFF76D
:10E79000EDFE20233A1C0A909A43472A07D10F9B8B
:10E7A000DA1C02DB626893422DDD023FFFB20F9953
:10E7B000652F12D8201C01393A1C50300F91FFF7F9
:10E7C00039FF109A061C83182361012A02DC226893
:10E7D000D2072ED5013323612BE0662F14D1636855
:10E7E000002908DD2161002B02D12268D2071DD546
:10E7F0000133CB1811E0002B03D101222168114213
:10E8000013D09A1C11E067270F9B1098834206DBF8
:10E8100022682361D20709D50133236106E0012272
:10E82000002B01DC0221CA1A8218226100260F9BEC
:10E83000A365232306AA9B181B78002B03D0231C57
:10E840002D2243331A70099B281C0093211C089B1E
:10E8500011AA00F05FF9431C02D10120404256E1A9
:10E860002268530504D4281C08990A9A236916E1E2
:10E87000652F00D8D4E0A06CE16C0022002303F0E7
:10E88000B3FD00282BD00123281C0899574A099E64
:10E89000B047431CE1D00F9B109A934207DB2368DB
:10E8A000DB0704D423689B0700D51AE113E1099E16
:10E8B000281C08990B9A0C9BB0470026431CCCD00F
:10E8C000109B013B9E42EDDA221C0123281C089973
:10E8D0001A32099FB847431CBFD00136F0E70F9B9F
:10E8E000002B2BDC0123281C0899404A099EB047C5
:10E8F000431CB2D00F9B002B05D1109B002B02D1E3
:10E900002368DB07CED5099E281C08990B9A0C9B1F
:10E91000B0470026431CA0D00F9B281C5B420899DF
:10E920009E4208DA221C01231A32099FB847431C71
:10E9300093D00136F0E70A9A109BB0E0109BA66DC9
:10E940009E4200DD1E1C002E01DC002314E0331C5F
:10E95000281C08990A9A099FB847431CF5D17CE7FF
:10E96000221C0123281C08991A32099FB847431C0E
:10E9700000D172E70D9B01330D93F343A26DDB17BA
:10E980000D993340D31A9942EADB0A9B9E180F9BDC
:10E99000109A93420EDB2368DB070BD4109B0A9A74
:10E9A000D7180F9ABF1B9B1A9F4200DD1F1C002F18
:10E9B00009DC11E00C9B281C08990B9A099FB847A9
:10E9C000431CEBD149E7321C3B1C281C0899099ECB
:10E9D000B047431C00D140E7002315E098440200F3
:10E9E0009C440200A0440200A4440200A844020087
:10E9F000221C0123281C08991A32099EB047431C87
:10EA000000D12AE70A9B01330A930F9A109B9A1AA6
:10EA1000FB43DB173B40D31A0A9A9A42E8DB41E7F3
:10EA2000109B281C0899012B02DC01231A423CD0C0
:10EA300001230A9A099FB847431C00D10DE70C9B9C
:10EA4000281C08990B9A099FB847431C00D104E77A
:10EA5000A06CE16C0023002203F0C6FC0023002818
:10EA600012D10A9A109B0132013B281C08991DE023
:10EA7000221C0123281C08991A32099FB847431CFD
:10EA800000D1EAE60A9B01330A93109B0A9A013BE4
:10EA90009A42EDDB221C281C331C08995032099E37
:10EAA000B047431C00D0FDE6D7E60A9A099FB84755
:10EAB000431CEFD1D1E6221C0123281C08991932EE
:10EAC000099FB847431C00D1C7E60136E368119A95
:10EAD0009B1A9E42EFDB119BE068984217DA181CE4
:10EAE00015E00026F2E731432160019123210090D7
:10EAF00006A8091802910FA9039110A905910021F8
:10EB000004970691281CFFF731FD0A9047E613B0E1
:10EB1000F0BDC046F7B5171C01930A698B680090D9
:10EB20000C1C934200DA131C221C3B604332127807
:10EB3000002A01D001333B6023689B0602D53B6865
:10EB400002333B60062523681D401ED0231C43333F
:10EB50001B785A1E9341226892061CD53020E1187A
:10EB60004031C870211C5A1C45310978A218403226
:10EB70000233D1700FE0221C012300980199193251
:10EB8000089EB047431C0ED00135E3683A689B1AD3
:10EB90009D42F0DBDAE7221C009801994332089D80
:10EBA000A847431C02D10120404220E006232068F0
:10EBB000E1683A6803400025042B03D18D1AEB432A
:10EBC000DB171D40A3682269934201DD9B1AED18F3
:10EBD0000027AF420ADA221C0123009801991A3259
:10EBE000089EB047431CDED00137F2E70020FEBD8F
:10EBF000F0B58BB006920A1C43320793059004923D
:10EC00000A7E0C1C109B6E2A00D1A8E011D8632A42
:10EC100022D009D8002A00D1B2E0582A00D0C2E0A0
:10EC200045310A707C4A4FE0642A1DD0692A1BD006
:10EC3000B9E0732A00D1A7E009D86F2A29D0702A39
:10EC400000D0B0E0202209680A43226037E0752A2C
:10EC50001FD0782A33D0A6E00E1C1A684236111D48
:10EC6000196013683370A1E021681A68080606D499
:10EC7000490604D5111D19600023D55E02E0111D5F
:10EC800019601568002D3BDA2D23049A6D4213702C
:10EC900036E021681A68080606D4490604D51568C6
:10ECA000111D1960ADB202E0111D196015685A4BB3
:10ECB000227E03930A276F2A1DD108271BE0221CFE
:10ECC000782145321170554A19680392081D22684F
:10ECD00018600D68100602D4500600D5ADB2D307F7
:10ECE00002D520231A4322601027002D03D12023B0
:10ECF00022689A432260231C002243331A7002E0E8
:10ED00000A27454B03936368A360002B03DB0422AF
:10ED1000216891432160002D02D1049E002B0ED06A
:10ED2000049E281C391C03F053FA039B013E5B5CD4
:10ED3000281C3370391C03F0C5F9051EF1D1082FCA
:10ED400009D12368DB0706D563682269934202DC98
:10ED50003023013E3370049B9B1B23612BE0096829
:10ED60001A68080607D4490605D5111D19601368ED
:10ED7000A28A1A8004E0111D1960136862691A6082
:10ED80000023049E236116E01A68111D196016689D
:10ED90000021301C626802F005FB002801D0801BB6
:10EDA0006060636803E0261C4236327001232361F1
:10EDB0000023049A1370079B05980093211C069B5F
:10EDC00009AAFFF7A7FE431C02D10120404221E01F
:10EDD000236905980699321C079DA847431CF4D067
:10EDE00023689B0705D4099BE068984212DA181C37
:10EDF00010E00025E368099A9B1A9D42F3DA221C71
:10EE00000123059806991932079EB047431CDCD0B0
:10EE10000135EFE70BB0F0BDAA440200BB4402008D
:10EE2000F0B5151C00228BB006938B6805925D32FD
:10EE30000E1CFF32591E0290914205D95E3BFF3BEA
:10EE400005935E23FF33B360F0233268DB00134386
:10EE50003360331C00241C331F1C04930394099457
:10EE6000089400940794B268002A00D1E1E02B686E
:10EE70001B78492B77D018D8392B0DD8312B42D29B
:10EE80002D2B49D002D82B2B46D0D2E02E2B00D1EF
:10EE90008DE0302B25D0CCE0452B00D190E0462BE7
:10EEA00079D0412B00D0C4E058E0652B00D187E039
:10EEB0000AD8542B73D002D84E2B35D0B9E0592B39
:10EEC00071D0612B4AD0B4E06E2B2DD004D8662BC4
:10EED00061D0692B47D0ACE0742B60D0792B62D025
:10EEE000A7E03168C8050ED580239943009B3160A7
:10EEF00001330093059B002B00D182E0013B0132DE
:10EF00000593B2607DE0039A1219002A00D090E0C8
:10EF1000B34A31680A4005E0802132680A4200D1D4
:10EF200087E08A4332606AE0039A002A0ED1009A91
:10EF3000002A0ED13168E022081CD2001040904215
:10EF400007D1A84A0A403260012257E0039A022AF8
:10EF500053D0012C1CD0042C1AD06AE0039A012A49
:10EF600067D102224AE0002C0ED1009A002A63D118
:10EF70003168E022081CD2001040904260D1994ACA
:10EF800001340A4032603AE0FD21E21E0A4250D1CB
:10EF90000134E4B233E0022C4BD103242FE0062CE1
:10EFA00047D107242BE0072C43D1082427E0316800
:10EFB0008A053ED58C4A0A403260009A07921EE0CC
:10EFC000A02280203168D2000A40C000824204D0D2
:10EFD00001422ED0009A002A32D08A0504D4009A29
:10EFE00007980997121A08927E4A0A40C0214900E0
:10EFF0000A4332600022009201E0032203923B7038
:10F000000137B368013BB3603369013333616B6827
:10F01000013B6B60002B03DD2B6801332B6022E783
:10F02000C0235B00F3580298291C9847002800D1A0
:10F0300019E7009B002B03D032686C4B1340336000
:10F04000039B013B012B10D8049B9F420BD9BE238D
:10F05000013F5B00F358397802982A1C98473369BE
:10F06000013B3361F0E70124B7E0631E062B2AD889
:10F07000022C19D905940397059B013BDBB205933C
:10F08000022B0DD0039B0298013B03931978BE23FA
:10F090005B00F3582A1C98473369013B3361EBE767
:10F0A000033CE4B23F1B0EE0049B9F42DBD9BE232E
:10F0B000013F5B00F358397802982A1C984733695E
:10F0C000013B3361F0E73368DA052BD55B050ED5DC
:10F0D000049B9F42C7D9BE23013F5B00F358397898
:10F0E00002982A1C98473369013B3361F0E7336982
:10F0F0007C1E2178013B336165290CD045290AD05B
:10F10000BE235B00F35802982A1C98473369BC1E43
:10F11000013B21783361BE235B00F35802982A1C1F
:10F120009847271C102433681C4055D1C0233C70DD
:10F130003268DB0013408022D200934206D1079A46
:10F14000009B9B1A5A42002B0DD118E0089B002B04
:10F1500015D0099B221C591C02980A2300F0E4FEDA
:10F16000089B099FC21A331C7033FF339F4202D39E
:10F17000371C6F37FF37381C1D4900F067F8002235
:10F180000298049900F0B6F8069B3268009001914D
:10F190001B68910701D4520708D506991A1D0A6009
:10F1A0001B680099019A19605A6011E006991A1DAE
:10F1B0000A60009801991D6800F01CF8002802D12F
:10F1C00000F040F803E00098019904F077FF286010
:10F1D000F3680133F36000E00024201C0BB0F0BDA5
:10F1E0007FFEFFFF7FF8FFFF7FFDFFFFFFFEFFFFBA
:10F1F000CC44020030B50C1C0223044317D08024F9
:10F200002406A14201D1002811D00A4B4900490827
:10F21000094ACC180423944209D9084A013B914277
:10F2200005D9074A0023914201D143424341181CAA
:10F2300030BDC0460000F0FFFFFFDF7FFFFF0F0083
:10F240000000F07F004870470000C07F0EB410B58A
:10F250009DB002A9029008610B4882248860486131
:10F26000012040421FABC881084804CBA4000068BD
:10F2700001938C8102F0BAFD0023029A13701DB035
:10F2800010BC08BC03B01847FFFFFF7F5C200020C4
:10F290000023C25C0133002AFBD1581E704730B5F1
:10F2A00003680C780133002C0AD01A78151C413DF4
:10F2B000192D00D820320131A242F2D0002001E005
:10F2C0000360012030BD000070B5161C0D1C02F05B
:10F2D00055FB002E0BD06B226B005B0DD31A002B5D
:10F2E00005DD034D1C050022631904F02FF870BDE5
:10F2F0000000F03F0023F0B5A3B01E9300260027C6
:10F300000B1C0390069119921D931D9B1A780D2AD0
:10F3100005D8092A14D2002A00D1C3E112E02B2A11
:10F3200006D02D2A02D0202A0CD109E0012200E0CB
:10F3300000220D925A1C1D925B78002B04D1B1E182
:10F340000133E1E700230D9300221D9D0A922B78E3
:10F35000302B5DD16B78582B01D0782B4CD11EAB64
:10F3600000930D9B039801931DA9C24A1FAB01F0A6
:10F370003CFD07240490044001D100F0A7FD062CB9
:10F3800005D1002301351D950D9300F09FFD1E9AB8
:10F39000002A07D020A8352102F0E4FB03981E992B
:10F3A00002F04CF81F9B062C1CD8201C02F080FE9B
:10F3B000040A0714170A040000273E1C12E0209ECE
:10F3C000219F0FE0AC4A21999B18AC4A1B050A40CB
:10F3D0001343209E1F1C05E0A94F002602E00126D2
:10F3E000A84F7642049B1B0701D400F06FFD8023D9
:10F3F0001B061F4300F06AFD1D9B5A1C1D925B7883
:10F40000302BF9D0002B01D100F060FD01230A93CD
:10F410001D9B0C9300230593079304931D9C237855
:10F420001A1C303A0893D3B2092B12D804990A2334
:10F43000082904DC07994B43D318079303E0059987
:10F440004B43D3180593049B0134013304931D945B
:10F45000E4E7039801F098FF0568039801F094FF32
:10F460000068FFF715FF291C021C201C02F0C6FDD6
:10F47000051E05D00020089B049C011C08905AE042
:10F48000039801F081FF0068FFF702FF1D9B049ABB
:10F4900018181D900378101E41D1302B05D11D9BEB
:10F4A00001305A1C1D925B78F7E71A1C313A082A82
:10F4B0003DD8011C0020041C1D9A0C92303B421CBC
:10F4C000002B26D08918221C001982420FD001324D
:10F4D000541E082C04DC0A24079D65430795F4E7B5
:10F4E000102AF2DC0A24059D65430595EDE7541CBE
:10F4F000082A06DC0A2207984243D3180793002201
:10F5000007E00022102C04DC0A20059D6843C31884
:10F5100005931D9B581C1D905B78101C02E0281C55
:10F52000291C049C1A1C303A092AC7D901E000247E
:10F53000211C0122089220221D1C95430022452DEA
:10F5400057D1231C0A9D03432B43934200D1A9E0CA
:10F550001D9B069301331D93069B5B782B2B06D0D6
:10F560002D2B01D0099208E00123099300E00992B4
:10F57000069B02331D93069B9B781A1C303A092A7E
:10F5800034D8302B04D11D9B5A1C1D925B78F8E7B0
:10F5900031256D42AC469C4465460022082D28D892
:10F5A000303B0B931D9B0E9330256D42AC461D9B4B
:10F5B0005A1C1D925B789C446546092D06D80A2288
:10F5C0000B9D6A43D318303B0B93EDE70E9D521B06
:10F5D000151E2D4A9446082D03DC0B9A624500DD6A
:10F5E0006246099D002D04D0524202E0069A1D9207
:10F5F0000022002C61D10A9A104301D000F066FC71
:10F60000089A002A4ED14E2B1CD002DC492B05D083
:10F6100048E0692B02D06E2B14D043E01DA81B4993
:10F62000FFF73DFE00283DD01D9B1DA8013B18495A
:10F630001D93FFF734FE002802D11D9B01331D935B
:10F640000F4F2CE01DA81349FFF729FE002829D0F1
:10F650001D9B1B78282B21D11DA80F4920AA01F042
:10F66000FAFD05281AD1219B054A209E1A43171C32
:10F6700000F02CFC1045020033040000FFFFEFFFF8
:10F680000000F07FFFFFFF7F1F4E00009D4402003F
:10F6900028460200A5440200D4440200924F0026EE
:10F6A00000F014FC069B1D9300230D93199B002B67
:10F6B00001D000F00EFC00F017FC531A0993049BD4
:10F6C000002B00D10494251E102D00DD1025079875
:10F6D00004F0C2FC061C0F1C092D15DD2B1C834AEF
:10F6E000093BDB00D3181A685B6803F02FFE061C89
:10F6F00005980F1C04F0B0FC021C0B1C301C391CBC
:10F7000002F0BEFE061C0F1C0F2C37DC099B002BE1
:10F7100000D1DBE324DD162B07DC7449DA008A18FC
:10F72000106851683B1C321C15E02523099A1B1BED
:10F730009A4223DC0F226D4D141BE300EB1818686E
:10F740005968321C3B1C03F001FE099B1C1BE400A2
:10F750002D192A686B6803F0F9FD061C0F1CB5E330
:10F76000099B16330ADB099B301CDA005F4B391CFE
:10F770009A1A5368126803F0ABF9EEE7099B651B10
:10F780005D19002D59DD0F232B400AD0574ADB00AD
:10F79000D31818685968321C3B1C03F0D7FD061CAF
:10F7A0000F1C0F239D4300D1B0E02633FF339D4251
:10F7B0000EDD0023049305930B9308932223002668
:10F7C000039A4B4F13600B9BB34200D06AE37DE377
:10F7D0000023301C391C2D110593012D0EDDEB0784
:10F7E00007D5059BDA00434BD3181A685B6803F012
:10F7F000ADFD059B6D1001330593EEE7061C3E4BF6
:10F80000CF18059BDA003B4B9B1818685968321CCF
:10F810003B1C03F09BFD364B0F1C0B403749061C6D
:10F820008B42C6D836498B4203D90126354F7642E2
:10F830006CE0D4239B04FF1868E0002D66D00F23F2
:10F840006D422B400AD0294ADB00D318301C1A68BD
:10F850005B68391C03F03CF9061C0F1C2D1155D0B8
:10F860001F2D05DD0023049305930B93089318E1E6
:10F8700000230693EB0601D56A230693391C301C3E
:10F88000214E002D08DDEB0703D53268736803F0C5
:10F890005DFD6D100836F4E7069B061C0F1C002B5F
:10F8A00019D06B224B005B0D081CD31A002B12DD04
:10F8B0001F2B0CDD0026342B02DDDC27BF040AE001
:10F8C0000122203B52429A401040071C03E00122D3
:10F8D00052429A401640301C391C0022002302F08C
:10F8E00083FD0028BED113E00000F8FF404602006F
:10F8F0000000F07F084702000000B0FC0000A07C80
:10F900000000907CFFFFEF7FE84402000023069395
:10F91000079B039800930C99049A231C01F0E3FDC4
:10F920000B90002800D144E7099B099A5B42D2174B
:10F93000134013930023049305930B9B039859687A
:10F9400001F044FD0890002800D137E70B9B0B998C
:10F950001B690C319A1C92000C30079301F02DFDAD
:10F960001FAB009320AB01930398321C3B1C0E96F7
:10F970000F9702F079F81E90002800D11EE7039837
:10F98000012101F03AFE0590002800D116E700237E
:10F99000099A0A93934200DA0A921F9B002B00DA1D
:10F9A00089E0139A0A9CD518069A20999B1A362248
:10F9B0005B18521AC84901208B4200DB85E0C91A46
:10F9C000521A1F297BDC8840002318901293AB1831
:10F9D0000793069BA418E418079BAB4200DD2B1C81
:10F9E000A34200DD231C002B04DD079AE41AD21A7F
:10F9F0000792ED1A139B002B6BD1079B002B00DDA8
:10FA000080E00A9B002B00D086E0002C00DD8DE01A
:10FA1000002D00DD94E003981E99089A01F043FF41
:10FA20000490002800D1C9E60022C3680599C2608D
:10FA30000C9301F01DFF002800DB91E00C9B002BD4
:10FA400000D01AE2002E00D017E23B0300D014E2EF
:10FA5000D622A24BD2043B40934200D80DE2049B35
:10FA60005B690793002B75D004990398012201F07C
:10FA7000ADFE0599049001F0FBFE002800DCFCE1DE
:10FA8000069A964B002A00D19AE01A1CD6213A40D9
:10FA9000C9048A4200DD93E0DC239B049A4200DD26
:10FAA000EEE12223039A002613600B9B0027002B14
:10FAB00000D0F7E10AE20A9A139DD41A74E7884944
:10FAC000CB1A011C9940129101E000231293189067
:10FAD0007DE71A1C0398059901F026FE0590031E88
:10FAE00000D16BE60398191C1E9A01F08FFD0C9053
:10FAF000002800D162E603981E9901F09FFC0C9B40
:10FB00001E937AE703981E99079A01F05FFE1E90F4
:10FB1000002800D075E751E6039808990A9A01F089
:10FB200003FE0890002800D06FE747E60398089985
:10FB3000221C01F04BFE0890002800D068E73DE64B
:10FB4000039805992A1C01F041FE0590002800D079
:10FB500061E733E6049B1B690793012B84DC8CE18E
:10FB6000002864D10C9A3B03002A24D05D4A391C3A
:10FB70001B0B93422DD1069A0138341C031C002A1A
:10FB80000AD0D425554AED043A40AA4204D86C3331
:10FB9000120D9A1A031C93409C421AD1524B99425F
:10FBA00002D1631C00D109E64C4B0026194080238A
:10FBB0005B03CF1861E1002B0BD1002E09D15FE769
:10FBC00001264A4A3B409B18464A76421A43171C74
:10FBD00053E1129B002B03D03B4200D14DE103E0E7
:10FBE000189B334200D148E10C9B301C391C069A0B
:10FBF000002B0AD0FFF768FB021C0B1C0E980F9914
:10FC000002F03EFC061C0F1C37E1FFF75DFB021CF7
:10FC10000B1C0E980F9903F033FE00220023061CE4
:10FC20000F1C02F0E1FB002800D03AE725E1049820
:10FC3000059901F06DFF80230022DB05041C0D1CDB
:10FC400002F0E2FB002836D00C9B002B02D00024EF
:10FC5000274D0BE0002E02D13B0305D10BE0012E16
:10FC600002D1002F00D11CE70024224D002307936E
:10FC70001F4B0A9348E0201C291C00221C4B02F059
:10FC8000B9FB002808D1201C291C00221A4B03F0C4
:10FC90005DFB07900A9103E00C9B0793164B0A93B8
:10FCA000802212069446079B1A930A9B63441B9377
:10FCB0001A9C1B9D28E0104B201C291C002203F0DD
:10FCC00045FB0C9B07900A91002B17D180231B0644
:10FCD000CB181490159315E003FCFFFF0000F07F94
:10FCE000E3FBFFFFFFFF0F00FFFFEF7F0000F0FFD0
:10FCF0000000F03F0000F0BF0000E03F079A0A9BC1
:10FD000014921593149C159D7A4B3B401293129AB2
:10FD1000794B9A422BD10E9A0F9B10921193774BED
:10FD2000301CFF18391C01F029FE021C0B1C201C82
:10FD3000291C03F00BFB021C0B1C301C391C02F0AD
:10FD40009FFB6C4B6E4A061C0B4093420BD96D4BCC
:10FD5000119A9A4203D1109B013300D12EE501265E
:10FD6000684F764278E0D4239B04CF1840E0069B8E
:10FD7000002B2BD0D423129ADB049A4226D8079862
:10FD80000A99614A614B02F03FFB002819D007989D
:10FD90000A9902F057FB002800D1013004F05CF909
:10FDA0000C9B07900A91002B05D180231B06CB18D2
:10FDB0001690179303E0079A0A9B16921793169CC6
:10FDC000179DD623129ADB04EB189D1A0E980F99F3
:10FDD00001F0D4FD021C0B1C201C291C03F0B6FAF8
:10FDE000021C0B1C0E980F9902F04AFB061C0F1CFC
:10FDF000069B0E97002B2FD13E4B129A3B409A4206
:10FE00002AD10A99079804F0B5F804F0E9F80B1C18
:10FE1000021C0A99079803F033FD0C9B041C0D1C6F
:10FE2000002B04D1002E02D10E9B1B030ED0201CF0
:10FE3000291C374A374B02F0DDFA002832D1201C4A
:10FE4000291C354A354B02F0E9FA03E0304A344BBD
:10FE500002F0D0FA002825D103981E9901F0EEFA9D
:10FE60000398089901F0EAFA0398059901F0E6FA77
:10FE70000398049901F0E2FA5FE5069B002B11D08C
:10FE8000284B301C119300231093391C109A119B9E
:10FE900003F05CFA061C0F1E04D1002802D12223B5
:10FEA000039A136003981E9901F0C8FA0398089901
:10FEB00001F0C4FA0398059901F0C0FA03980B9970
:10FEC00001F0BCFA0398049901F0B8FA199B002BD1
:10FED00002D0199B1D9A1A600D9B002B04D0802321
:10FEE0001B06321CFB1801E0321C3B1C101C191CA9
:10FEF00023B0F0BD0000F07F0000E07F0000B0FC08
:10FF0000FFFF9F7CFFFFEF7F0000C0FFFFFFDF418F
:10FF10009535A094FFFFDF3F35E5AF350000E03FAA
:10FF2000FFFFCF3F00005039F0B51E1C444B87B097
:10FF30001B68059002930B1C039101921C78029A96
:10FF40005D1C121950780822104001D02B1CF5E7D7
:10FF50002D2C04D19D1C5C780123009304E00090BB
:10FF60002B2C01D15C789D1C002E02D0102E0AD1C2
:10FF700060E0302C5CD120222B789343582B52D157
:10FF800010266C780235009F311C7B1E9F412D4B43
:10FF9000FF18381C02F01CF9381C0491311C02F0C7
:10FFA00091F80022071C131C029909194978480787
:10FFB00001D5303C07E00320084017D03721012845
:10FFC00000D02031641AB44210DA511C0BD0BB426D
:10FFD00007D802D1049A944203DC73430122E31848
:10FFE00001E0012252422C780135DDE7181C511C3A
:10FFF0000BD10098059A431E9841124BC01822233A
:020000022000DC
:100000001360019B002B0AD117E00099002900D052
:100010005842019B002B10D0039B002A00D06B1E7E
:10002000019A136009E03024002EACD10826AAE71B
:100030000A26A8E7302CA6D19DE707B0F0BDC04640
:1000400060200020FFFFFF7FF0B503690C6989B0D5
:100050000026A3427CDB0B1C013C1433A500039358
:100060005B190493031C143301935D19049B0791DE
:100070001B680290591C2868059302F023F8071E9C
:10008000B74235D0039B01989C460596634604CB46
:1000900091B27943120C7A4371180E0C9C46B31836
:1000A000069302881E0C059B89B2D2180368521A67
:1000B000190C6B461B8BCB1A11145B18191492B2D6
:1000C0001B041A43049B059104C06345DED22B68D0
:1000D000002B0DD1231C019A043D954203D8029AAE
:1000E0001C1C136104E02A68002AF8D1013BF2E7E6
:1000F0000298079901F0BCFB002828DB0020019939
:10010000039A013720CA0B881818ABB2C31A0868C3
:100110002D0C000C451B1E14AD1928149BB22D0488
:100120002B4308C1049B9342ECD2019AA300D3183D
:100130001A68002A0BD1019A043B934202D8029B11
:100140001C6104E01A68002AF9D1013CF3E73E1C67
:10015000301C09B0F0BD0000F0B5161C1F1C446A2D
:100160009BB00890239D06960797002C08D110207D
:1001700001F00EF9089B5862446084600460C4601A
:10018000089B5B6A196800290BD05A6801239340C9
:100190004A608B60089801F051F90022089B5B6A65
:1001A0001A60079B002B05DA01232B607B005B089C
:1001B000079301E000232B60079CC64B221C17937A
:1001C0001A409A4219D1C44B229A1360069AC34B23
:1001D000002A02D1240300D1C14B249A181C002A02
:1001E00001D100F0B6FDD978DA1C002900D0053223
:1001F0002499181C0A6000F0ACFD069E079F00229F
:10020000301C391C002302F0EFF8051E0ED001232C
:10021000229A1360B34B249A181C002A01D100F0D3
:1002200098FDB14A24990A6000F093FD19AB009340
:1002300018AB01930898321C3B1C01F015FC6100BF
:100240000A90490D09D03803A84C000B0443A84874
:10025000321C231C0E1816951CE0189B199A9E1828
:10026000A44B9E4209DBA44BF018069BC340181C0C
:10027000A24B9B1B9C40204304E0A148069B801B93
:100280008340181C03F0E8FE9E4C021C0B19012150
:10029000013E1691101C191C00229B4B03F0F0FA32
:1002A0009A4A9B4B03F052F89A4A9B4B02F0E8F8AB
:1002B000041C301C0D1C03F093FE984A984B03F06D
:1002C00045F8021C0B1C201C291C02F0D9F8041C48
:1002D0000D1C03F04FFE291C03900022201C00235C
:1002E00002F088F800280DD0039803F079FE021C74
:1002F0000B1C201C291C02F077F843424341039A4F
:10030000D31A039301231393039B162B11D8854A09
:10031000DB00D31818685968069A079B02F07EF82C
:10032000002805D0039B013B03930023139300E0B7
:100330001390189B9E1B00230D93013E0E9604D52F
:100340000E9B5B420D9300230E93039B002B08DB57
:10035000039A0E9B944663440E93002312920F93CC
:1003600007E00D9B039A9B1A0D9353420F930023B2
:100370001293209B0125092B27D8052B02DD002590
:10038000043B2093209B981E032823D801F090FE65
:10039000020E0410002300E001231093219B002B88
:1003A00021DC01230B9309931A1C1AE0002300E0BF
:1003B0000123039A10939446219B63440B930133CA
:1003C0000993002B12DC012310E0002310952093E9
:1003D000013B02E001231093023B00220B9309939F
:1003E0001333219202E0219B0B930993089A546ADC
:1003F000002262600432111C1431994204D86168F1
:10040000520001316160F6E70898616800F0DEFF94
:10041000089B20605B6A1B680C93099B0E2B00D91C
:1004200088E1002D00D185E1069B079C149315946B
:10043000039B002B30DD0F223A491340DB00CB1821
:100440005C681B6804930594039B02271D11EB064F
:100450000AD514981599344B15401A6A5B6A02F054
:1004600037FB0690079101372F4C002D0DD0EB077D
:1004700008D5049805992268636802F067FF049024
:10048000059101376D100834EFE706980799049A33
:10049000059B02F01DFB49E0039B02275D42002DF6
:1004A00046D0149815990F231E4A2B40DB00D31811
:1004B0001A685B6802F04AFF1B4C2D11002D35D0E5
:1004C000EB0704D522686368013702F03FFF6D1027
:1004D0000834F3E70000F07F0F2700002E460200EB
:1004E00025460200A8440200A94402000000F03F93
:1004F00001FCFFFFEFFBFFFF120400000EFCFFFFFB
:10050000EEFBFFFF000010FE0000F83F61436F6349
:10051000A787D23FB3C8608B288AC63FFB799F501C
:100520001344D33F4046020008470200069007915B
:10053000139B002B1ED0069C079D0022201C291C0B
:10054000CE4B01F057FF002814D0099B002B11D08F
:100550000B9B002B00DCE9E0039B291C013B119362
:10056000201C0022C64B02F0F1FE013706900791D5
:100570000B9D02E0039B099D1193381C069B079C71
:100580000493059403F02CFD049A059B02F0DEFE13
:100590000022BC4B01F074FF06900791069E079F56
:1005A000079BB94A9C18002D1CD10498059900227C
:1005B000B64B03F065F9321C231C0490059101F041
:1005C0002DFF002800D063E204980599321CB04E3C
:1005D000079CB4466444231C01F00CFF002800D0A3
:1005E0004CE2A3E0AB4A6B1E1099DB00D318002944
:1005F0004ED01A685B680020A74902F069FA321CE5
:10060000231C03F03DF9049E059F0C9B0690079167
:100610000493391C301C03F0ADFC041C03F0E0FC17
:10062000021C0B1C301C391C03F02AF9049B3034CB
:1006300001330493013B1C70069A079B061C0F1C98
:1006400001F0D8FE002800D061E3321C3B1C0020E2
:100650008A4903F015F9069A079B01F0CBFE0028A2
:1006600000D0CDE0049B0C9A9B1AAB425EDA069850
:1006700007990022824B02F069FE00220690079142
:100680007F4B301C391C02F061FE061C0F1CC0E7BA
:1006900018685968321C231C02F058FE049E059FFE
:1006A0000C9C0690079163190493391C301C03F0CD
:1006B00061FC051C03F094FC0B1C021C391C301C53
:1006C00003F0DEF83035049B25700134061C0F1C46
:1006D000A34224D10022069807996F4B01F0D0FE67
:1006E000021C0B1C301C391C01F098FE002800D0A5
:1006F00086E0069A079B0020674903F0C1F8021CB8
:100700000B1C301C391C01F075FE00280ED0049B18
:10071000013B1A78302A00D0F9E20493F7E700226F
:10072000574B02F013FE061C0F1CBEE7149B159CD2
:1007300006930794199B002B00DA86E0039A0E2A91
:1007400000DD82E0D300534AD3181E685F68219B06
:10075000002B14DA099B002B11DC00D090E1301C37
:10076000391C0022494B02F0F1FD069A079B01F06B
:100770005FFE099F3E1C002800D083E18CE10C9BAA
:10078000069C079D0493321C3B1C201C291C02F074
:100790009FF903F0EFFB069003F022FC321C3B1C98
:1007A00002F0D4FD021C0B1C201C291C03F068F86D
:1007B0000B1C0499021C0698013104913030013958
:1007C00008700C980499091A099881422ED1101CBE
:1007D000191C01F055FE321C3B1C041C0D1C01F0C1
:1007E0001DFE002810D1201C291C321C3B1C01F0CE
:1007F000FBFD002800D18CE2069BDB0704D488E2D5
:10080000119B039300E00493049B013B1A78392A5F
:1008100008D10C9A9342F6D1039B01330393302302
:100820001370131C1A7801321A7072E2101C191C12
:100830000022134B02F08AFD00220023041C0D1C31
:1008400001F0D2FD00289ED063E2109A002A44D025
:10085000209A012A0BDC169A002A02D00F4A9B1814
:1008600002E03623189A9B1A0F9D0D9C29E0099BE4
:100870005D1E0F9BAB4213DB5D1B18E00000F03FD9
:100880000000244000001C400000C0FC0000144098
:100890000000C07C404602000000E03F330400003E
:1008A0000F9B0F95EA1A0025129B9B181293099B28
:1008B000002B04DA0D9B099A9C1A002301E00D9C81
:1008C000099B0D9A0898D2180D920E9A0121D318FF
:1008D0000E9300F092FE061C02E00F9D0D9C109EF0
:1008E000002C0CD00E9B002B09DDA34200DD231C45
:1008F0000D9AE41AD21A0D920E9AD31A0E930F9BE8
:10090000002B21DD109B002B18D0002D10DD311C99
:100910002A1C089800F008FF061C0A9A311C089847
:1009200000F074FE071C0A99089800F087FD0A97EA
:100930000F9B5A1B08D008980A9902E008980A9958
:100940000F9A00F0F1FE0A900898012100F055FE80
:10095000129B071C002B0ADD391C1A1C089800F09A
:10096000E3FE209B071C0025012B1BDC03E0209BE2
:100970000025012B12DC0025069BAB420ED1079B04
:100980001B03AB420AD1179B079A134206D00D9B5B
:10099000013501330D930E9B01330E93129B012001
:1009A000002B08D03B6903339B00FB18586800F00C
:1009B000DAFD2023181A0E9BC0181F23184009D0F7
:1009C00001331B1A042B02DD1C23181A03E0042B2D
:1009D00008D0181C1C300D9B24181B180D930E9B5F
:1009E0001B180E930D9B002B05DD08980A991A1C05
:1009F00000F0ECFE0A900E9B002B05DD391C0898D8
:100A00001A1C00F0E3FE071C139B002B1ED00A9853
:100A1000391C00F02DFF002818DA039B0898013BD1
:100A200003930A9900230A2200F021FD109B0A90EB
:100A3000002B00D17FE1311C002308980A2200F02E
:100A400016FD0B9B061C002B3CDC7DE1099B002B5B
:100A50002EDC209B022B2BDD099B0B930B9B002B89
:100A600010D1391C0898052200F001FD071C0A98D6
:100A7000391C00F0FDFE00280EDC03E02F1C00E016
:100A800000273E1C219BDB4303930C9B04930CE04B
:100A90002F1C2E1C119B03930C9B0C9A0133049367
:100AA00031231370039B01330393099600261AE147
:100AB000109B002B04D1099B0B930C9D0A9CD0E04A
:100AC000099B0B93002C05DD311C0898221C00F0BB
